{
  "_format": "hh-sol-artifact-1",
  "contractName": "AirdropImplByMerkleTree",
  "sourceName": "contracts/airdrop/merkletree/AirdropImplByMerkleTree.sol",
  "abi": [
    {
      "inputs": [
        {
          "internalType": "bytes32",
          "name": "_merkleRoot",
          "type": "bytes32"
        }
      ],
      "stateMutability": "nonpayable",
      "type": "constructor"
    },
    {
      "inputs": [
        {
          "internalType": "bytes32[]",
          "name": "proof",
          "type": "bytes32[]"
        },
        {
          "internalType": "address",
          "name": "account",
          "type": "address"
        },
        {
          "internalType": "uint256",
          "name": "amount",
          "type": "uint256"
        }
      ],
      "name": "claim",
      "outputs": [],
      "stateMutability": "nonpayable",
      "type": "function"
    },
    {
      "inputs": [
        {
          "internalType": "address",
          "name": "",
          "type": "address"
        }
      ],
      "name": "claimedMap",
      "outputs": [
        {
          "internalType": "uint256",
          "name": "",
          "type": "uint256"
        }
      ],
      "stateMutability": "view",
      "type": "function"
    },
    {
      "inputs": [],
      "name": "merkleRoot",
      "outputs": [
        {
          "internalType": "bytes32",
          "name": "",
          "type": "bytes32"
        }
      ],
      "stateMutability": "view",
      "type": "function"
    }
  ],
  "bytecode": "0x608060405234801561001057600080fd5b5060405161087c38038061087c8339818101604052810190610032919061007a565b80600081905550506100a7565b600080fd5b6000819050919050565b61005781610044565b811461006257600080fd5b50565b6000815190506100748161004e565b92915050565b6000602082840312156100905761008f61003f565b5b600061009e84828501610065565b91505092915050565b6107c6806100b66000396000f3fe608060405234801561001057600080fd5b50600436106100415760003560e01c80632eb4a7ab14610046578063c978a11314610064578063ca21b17714610094575b600080fd5b61004e6100b0565b60405161005b91906102d5565b60405180910390f35b61007e60048036038101906100799190610362565b6100b6565b60405161008b91906103a8565b60405180910390f35b6100ae60048036038101906100a99190610574565b6100ce565b005b60005481565b60016020528060005260406000206000915090505481565b6000600160008473ffffffffffffffffffffffffffffffffffffffff1673ffffffffffffffffffffffffffffffffffffffff1681526020019081526020016000205414610150576040517f08c379a000000000000000000000000000000000000000000000000000000000815260040161014790610640565b60405180910390fd5b600082826040516020016101659291906106c9565b60405160208183030381529060405280519060200120905061018a8460005483610213565b6101c9576040517f08c379a00000000000000000000000000000000000000000000000000000000081526004016101c090610741565b60405180910390fd5b81600160008573ffffffffffffffffffffffffffffffffffffffff1673ffffffffffffffffffffffffffffffffffffffff1681526020019081526020016000208190555050505050565b600082610220858461022a565b1490509392505050565b60008082905060005b845181101561026f576102608286838151811061025357610252610761565b5b602002602001015161027a565b91508080600101915050610233565b508091505092915050565b60008183106102925761028d82846102a5565b61029d565b61029c83836102a5565b5b905092915050565b600082600052816020526040600020905092915050565b6000819050919050565b6102cf816102bc565b82525050565b60006020820190506102ea60008301846102c6565b92915050565b6000604051905090565b600080fd5b600080fd5b600073ffffffffffffffffffffffffffffffffffffffff82169050919050565b600061032f82610304565b9050919050565b61033f81610324565b811461034a57600080fd5b50565b60008135905061035c81610336565b92915050565b600060208284031215610378576103776102fa565b5b60006103868482850161034d565b91505092915050565b6000819050919050565b6103a28161038f565b82525050565b60006020820190506103bd6000830184610399565b92915050565b600080fd5b6000601f19601f8301169050919050565b7f4e487b7100000000000000000000000000000000000000000000000000000000600052604160045260246000fd5b610411826103c8565b810181811067ffffffffffffffff821117156104305761042f6103d9565b5b80604052505050565b60006104436102f0565b905061044f8282610408565b919050565b600067ffffffffffffffff82111561046f5761046e6103d9565b5b602082029050602081019050919050565b600080fd5b61048e816102bc565b811461049957600080fd5b50565b6000813590506104ab81610485565b92915050565b60006104c46104bf84610454565b610439565b905080838252602082019050602084028301858111156104e7576104e6610480565b5b835b8181101561051057806104fc888261049c565b8452602084019350506020810190506104e9565b5050509392505050565b600082601f83011261052f5761052e6103c3565b5b813561053f8482602086016104b1565b91505092915050565b6105518161038f565b811461055c57600080fd5b50565b60008135905061056e81610548565b92915050565b60008060006060848603121561058d5761058c6102fa565b5b600084013567ffffffffffffffff8111156105ab576105aa6102ff565b5b6105b78682870161051a565b93505060206105c88682870161034d565b92505060406105d98682870161055f565b9150509250925092565b600082825260208201905092915050565b7f41697264726f7020616c726561647920636c61696d6564000000000000000000600082015250565b600061062a6017836105e3565b9150610635826105f4565b602082019050919050565b600060208201905081810360008301526106598161061d565b9050919050565b60008160601b9050919050565b600061067882610660565b9050919050565b600061068a8261066d565b9050919050565b6106a261069d82610324565b61067f565b82525050565b6000819050919050565b6106c36106be8261038f565b6106a8565b82525050565b60006106d58285610691565b6014820191506106e582846106b2565b6020820191508190509392505050565b7f496e76616c69642070726f6f6600000000000000000000000000000000000000600082015250565b600061072b600d836105e3565b9150610736826106f5565b602082019050919050565b6000602082019050818103600083015261075a8161071e565b9050919050565b7f4e487b7100000000000000000000000000000000000000000000000000000000600052603260045260246000fdfea2646970667358221220c9d119ebd213c4847309558256688ee8d9665035d2dc1122bf4d72b5688b812764736f6c63430008180033",
  "linkReferences": {},
  "deployedLinkReferences": {}
}