{
  "_format": "hh-sol-artifact-1",
  "contractName": "AirdropImplByMerkleTree",
  "sourceName": "contracts/airdrop/merkletree/AirdropImplByMerkleTree.sol",
  "abi": [
    {
      "inputs": [
        {
          "internalType": "bytes32",
          "name": "_merkleRoot",
          "type": "bytes32"
        }
      ],
      "stateMutability": "nonpayable",
      "type": "constructor"
    },
    {
      "inputs": [
        {
          "internalType": "bytes32[]",
          "name": "proof",
          "type": "bytes32[]"
        },
        {
          "internalType": "address",
          "name": "account",
          "type": "address"
        },
        {
          "internalType": "uint256",
          "name": "amount",
          "type": "uint256"
        }
      ],
      "name": "claim",
      "outputs": [
        {
          "internalType": "bool",
          "name": "result",
          "type": "bool"
        }
      ],
      "stateMutability": "nonpayable",
      "type": "function"
    },
    {
      "inputs": [
        {
          "internalType": "address",
          "name": "",
          "type": "address"
        }
      ],
      "name": "claimedMap",
      "outputs": [
        {
          "internalType": "uint256",
          "name": "",
          "type": "uint256"
        }
      ],
      "stateMutability": "view",
      "type": "function"
    },
    {
      "inputs": [],
      "name": "merkleRoot",
      "outputs": [
        {
          "internalType": "bytes32",
          "name": "",
          "type": "bytes32"
        }
      ],
      "stateMutability": "view",
      "type": "function"
    }
  ],
  "bytecode": "0x608060405234801561001057600080fd5b506040516108983803806108988339818101604052810190610032919061007a565b80600081905550506100a7565b600080fd5b6000819050919050565b61005781610044565b811461006257600080fd5b50565b6000815190506100748161004e565b92915050565b6000602082840312156100905761008f61003f565b5b600061009e84828501610065565b91505092915050565b6107e2806100b66000396000f3fe608060405234801561001057600080fd5b50600436106100415760003560e01c80632eb4a7ab14610046578063c978a11314610064578063ca21b17714610094575b600080fd5b61004e6100c4565b60405161005b91906102ed565b60405180910390f35b61007e6004803603810190610079919061037a565b6100ca565b60405161008b91906103c0565b60405180910390f35b6100ae60048036038101906100a9919061058c565b6100e2565b6040516100bb9190610616565b60405180910390f35b60005481565b60016020528060005260406000206000915090505481565b600080600160008573ffffffffffffffffffffffffffffffffffffffff1673ffffffffffffffffffffffffffffffffffffffff1681526020019081526020016000205414610165576040517f08c379a000000000000000000000000000000000000000000000000000000000815260040161015c9061068e565b60405180910390fd5b60008360405160200161017891906106f6565b60405160208183030381529060405280519060200120905061019d856000548361022b565b9150816101df576040517f08c379a00000000000000000000000000000000000000000000000000000000081526004016101d69061075d565b60405180910390fd5b82600160008673ffffffffffffffffffffffffffffffffffffffff1673ffffffffffffffffffffffffffffffffffffffff16815260200190815260200160002081905550509392505050565b6000826102388584610242565b1490509392505050565b60008082905060005b8451811015610287576102788286838151811061026b5761026a61077d565b5b6020026020010151610292565b9150808060010191505061024b565b508091505092915050565b60008183106102aa576102a582846102bd565b6102b5565b6102b483836102bd565b5b905092915050565b600082600052816020526040600020905092915050565b6000819050919050565b6102e7816102d4565b82525050565b600060208201905061030260008301846102de565b92915050565b6000604051905090565b600080fd5b600080fd5b600073ffffffffffffffffffffffffffffffffffffffff82169050919050565b60006103478261031c565b9050919050565b6103578161033c565b811461036257600080fd5b50565b6000813590506103748161034e565b92915050565b6000602082840312156103905761038f610312565b5b600061039e84828501610365565b91505092915050565b6000819050919050565b6103ba816103a7565b82525050565b60006020820190506103d560008301846103b1565b92915050565b600080fd5b6000601f19601f8301169050919050565b7f4e487b7100000000000000000000000000000000000000000000000000000000600052604160045260246000fd5b610429826103e0565b810181811067ffffffffffffffff82111715610448576104476103f1565b5b80604052505050565b600061045b610308565b90506104678282610420565b919050565b600067ffffffffffffffff821115610487576104866103f1565b5b602082029050602081019050919050565b600080fd5b6104a6816102d4565b81146104b157600080fd5b50565b6000813590506104c38161049d565b92915050565b60006104dc6104d78461046c565b610451565b905080838252602082019050602084028301858111156104ff576104fe610498565b5b835b81811015610528578061051488826104b4565b845260208401935050602081019050610501565b5050509392505050565b600082601f830112610547576105466103db565b5b81356105578482602086016104c9565b91505092915050565b610569816103a7565b811461057457600080fd5b50565b60008135905061058681610560565b92915050565b6000806000606084860312156105a5576105a4610312565b5b600084013567ffffffffffffffff8111156105c3576105c2610317565b5b6105cf86828701610532565b93505060206105e086828701610365565b92505060406105f186828701610577565b9150509250925092565b60008115159050919050565b610610816105fb565b82525050565b600060208201905061062b6000830184610607565b92915050565b600082825260208201905092915050565b7f41697264726f7020616c726561647920636c61696d6564000000000000000000600082015250565b6000610678601783610631565b915061068382610642565b602082019050919050565b600060208201905081810360008301526106a78161066b565b9050919050565b60008160601b9050919050565b60006106c6826106ae565b9050919050565b60006106d8826106bb565b9050919050565b6106f06106eb8261033c565b6106cd565b82525050565b600061070282846106df565b60148201915081905092915050565b7f496e76616c69642070726f6f6600000000000000000000000000000000000000600082015250565b6000610747600d83610631565b915061075282610711565b602082019050919050565b600060208201905081810360008301526107768161073a565b9050919050565b7f4e487b7100000000000000000000000000000000000000000000000000000000600052603260045260246000fdfea2646970667358221220eda1f9563572fd0855a605cf0ea57aaa37c97a2348b79c1fb37924642cac95ce64736f6c63430008180033",
  "linkReferences": {},
  "deployedLinkReferences": {}
}